:020000040800F2
:10000000800E002001010008032800081F240008BA
:100010000128000815080008974A000800000000A1
:10002000000000000000000000000000B1310008E6
:100030002F08000800000000312E00084F32000891
:100040001B0100081B0100081B0100081B01000820
:100050001B0100081B0100081B0100081B01000810
:100060001B0100081B0100081B0100081B01000800
:100070001B0100081B0100081B0100081B010008F0
:100080001B0100081B0100081B010008154A00089D
:10009000214A00081B0100081B0100081B01000881
:1000A0001B0100081B0100081B0100081B010008C0
:1000B0001B0100081B010008CD3200081B010008CD
:1000C0001B0100081B0100081B0100081B010008A0
:1000D0001B0100081B0100081B0100081B01000890
:1000E0001B0100081B0100081B010008DFF80CD0F1
:1000F00000F032FB0048004775540008800E0020D5
:100100000648804706480047FEE7FEE7FEE7FEE7B1
:10011000FEE7FEE7FEE7FEE7FEE7FEE7C93200087E
:10012000ED000008202A04DB203A21FA02F0002129
:10013000704721FA02F3D040C2F1200291400843F7
:100140001946704740EA01039B0703D009E008C93C
:10015000121F08C0042AFAD203E011F8013B00F88C
:10016000013B521EF9D27047D2B201E000F8012BD8
:10017000491EFBD270470022F6E710B513460A4627
:1001800004461946FFF7F0FF204610BD2DE9FE4F4B
:1001900081EA030404F0004421F0004100944FF090
:1001A000000B23F0004350EA01045ED052EA03043E
:1001B0005BD0C3F30A54C1F30A552C44A4F2F334C0
:1001C0000194A0FB0254C1F3130141F48011C3F365
:1001D000130343F4801301FB024400FB034E840A23
:1001E000970A44EA815447EA8357A4FB07680295BB
:1001F0008D0A05FB07854FEA932C04FB0C54270559
:10020000029D4FEA065847EA1637B5EB08056EEB34
:10021000070C870E920E47EA811742EA8312A7FB6A
:100220000201B6EB0B0164EB00042B0D43EA0C3327
:100230005E1844EB1C50DA465146E7FB0201C5F359
:1002400013044FEA0B3343EA14534FEA0432019C80
:1002500043EA0603A4F10C040294009CCDE900B427
:1002600000F055F903B0BDE8F08F00200146F9E732
:100270002DE9F04D81EA030404F0004B21F0004524
:1002800014464FF0000A23F0004150EA050220D046
:1002900054EA01021DD0C5F30A570246C5F3130301
:1002A000C1F31300C1F30A5640F4801543F48013E0
:1002B000A7EB0608101BD64608F2FD3873EB0500C5
:1002C00002D308F1010801E092185B41B8F1000F78
:1002D00003DA00200146BDE8F08D00204FF48011C4
:1002E000064684460EE0171B73EB050705D3121B69
:1002F00063EB050306434CEA010C49084FEA300062
:1003000092185B4150EA0107EDD152EA030012D086
:1003100082EA040083EA0501084305D0101BAB41C3
:1003200006D20122002306E000224FF0004302E043
:100330006FF0010253101AEB06004CEB085110EB62
:100340000A0041EB0B01BDE8F04D00F0D1B870B5EB
:1003500021F0004303430CD0C1F30A550024D5EB30
:10036000040564EB0403D617AD1AB34102DB002089
:10037000014670BD201841EB025170BD0EB540F230
:10038000334102910021CDE900110A460B4600F0ED
:10039000BEF803B000BD00F0004230F000400AD0CB
:1003A000C10D01F56071C0F3160042EA0151C208A7
:1003B00040071143704700200146704701F0004399
:1003C00030B421F0004150EA010206D00A0DA2F536
:1003D0006072C1F31301002A02DC30BC00207047B8
:1003E000440F44EAC104C100E01830BC00EBC25025
:1003F00000F047B830B50B4601460020202201240A
:1004000009E021FA02F59D4205D303FA02F5491BE2
:1004100004FA02F52844151EA2F10102F1DC30BDF8
:100420002DE9F05F0546002092469B468846064629
:10043000814640241BE02846414647462246FFF7B6
:1004400071FE53465A46C01A914110D311461846C0
:10045000224600F093F92D1A67EB01084F46224619
:100460000120002100F08AF917EB00094E41201EFF
:10047000A4F10104DFDC484631462A464346BDE884
:10048000F09F0029A8BF7047401C490008BF20F01A
:100490000100704710B4B0FA80FC00FA0CF050EA8A
:1004A000010404BF10BC704749B1CCF1200421FA0B
:1004B00004F411FA0CF118BF012121430843A3EB06
:1004C0000C01CB1D4FEA00614FEA102042BF002013
:1004D00010BC704700EBC35010440029A4BF10BCEF
:1004E0007047401C490008BF20F0010010BC704755
:1004F00010B5141E73F1000408DA401C41F100012C
:1005000092185B411A4301D120F0010010BD2DE982
:10051000F04D92469B4611B1B1FA81F202E0B0FA79
:1005200080F22032904600F029F904460F4640EA56
:100530000A0041EA0B0153465A46084313D01146BC
:1005400053EA010019D0C8F140025046FFF7EAFD16
:1005500005460E4650465946424600F00FF90843FC
:1005600005D0012004E020463946BDE8F08D00208A
:10057000054346EAE0762C4337430A986305E40ACC
:10058000A0EB08000022FD0A44EA47540A3002D5D5
:1005900000200146E9E7010510196941DDE9084538
:1005A00000196941BDE8F04DA2E72DE9FE4F8046F4
:1005B00081EA0300C00F0C46009021F0004123F0B7
:1005C0000045B8EB0200A94105D2404621469046BD
:1005D0001C460B46024623F00040104347D0270D2F
:1005E000C7F30A00C3F30A510290401A0190402851
:1005F0006BDAC3F3130040F4801B0098924620B1DD
:100600000023D2EB030A63EB0B0B01985946C0F1B0
:100610004002504600F0B2F806460D465046594694
:10062000019A00F0BAF810EB08006141002487EA53
:10063000115284EAE7731A4340D0009A62B3019AD8
:10064000012A4FEA075215DC001B61EB02014FF053
:10065000004202EA0752CDE90042001C41F5801138
:1006600032462B46FFF753FF03B0BDE8F08F4046FC
:100670002146F9E7001B61EB0201001C41F58013E4
:1006800000185B412018A2F5001747EB030140EA70
:10069000D570B6196D4111E06D084FEA360645EA8E
:1006A000C0754FEA0752001B61EB0201001C41F5C7
:1006B000801149084FEA30000019514132462B465B
:1006C00003B0BDE8F04FFFF713BF009801224000D0
:1006D0000023D0EB020263EBE073009821464FEA5F
:1006E000E074B8EB000061EB0401E9E783F000433C
:1006F0005BE781F0004158E7C1F30A52C1F31301EF
:1007000040F2FF3341F480119A4202DA00200146A0
:10071000704740F233439A42A2F2334202DC524223
:10072000FFF700BD00F02AB830B5041E71F10004D7
:1007300004DB4FF00044404264EB0101141E73F1EE
:10074000000405DB1C464FF00043524263EB0403F8
:10075000994208BF904230BD064C074D06E0E06864
:1007600040F0010394E8070098471034AC42F6D3F8
:10077000FFF7C0FC3C5600085C560008202A04DB4A
:10078000203A00FA02F1002070479140C2F12003A4
:1007900020FA03F3194390407047202A06DBCB1759
:1007A000203A41FA02F043EAE07306E041FA02F32C
:1007B000D040C2F12002914008431946704770B5FD
:1007C0008C1810F8015B15F0070301D110F8013BFC
:1007D0002A1106D110F8012B03E010F8016B01F883
:1007E000016B5B1EF9D12B0705D40023521E0DD4DB
:1007F00001F8013BFAE710F8013BCB1A921C03E029
:1008000013F8015B01F8015B521EF9D5A142D8D360
:10081000002070BDFEE770B50C46054602F068FB8F
:1008200020EA04012846BDE8704004F05BB9704737
:1008300072B6FEE770B5044600F004F90546601C88
:1008400002D004480078044400F0FCF8401BA042A9
:10085000FAD370BD2C0000202DE9F84FDFF8B891D5
:100860000024A9F1040B23460F2709F1040AABF178
:10087000040EC9E00125A5402A40AA427DD1674E59
:10088000D1F804C0ACEB0608B44532D014DCBCF19E
:10089000030F3AD009DCBCF1000F2AD0BCF1010FE4
:1008A0001CD0BCF1020F31D11DE0BCF1110F17D0EB
:1008B000BCF1120F2AD119E0B8F5881F19D006DC57
:1008C000B8F5803F15D0B8F5801F1FD111E0B8F5FD
:1008D000001F0ED0B8F5041F18D10AE0CB6815E050
:1008E000CB681B1D12E0CB6808330FE0CB680C33DC
:1008F0000CE08B682BB1012B4FF0080303D045614E
:1009000004E0042302E0056100E00023FF2A01D88F
:10091000064601E000F104064FEA840501D9A5F17D
:100920002005D6F8008007FA05FC28EA0C0803FA2F
:1009300005F548EA0508C6F800804D68ED0062D567
:10094000374DAE6946F00106AE61AD6924F003068D
:1009500005F001050095334D06EB050CDCF8085059
:10096000A607360F07FA06F825EA0805DFF8B8806B
:10097000404503D14FF0000817E044E0DFF8AC80B9
:10098000404502D14FF001080FE0DFF8A480404558
:1009900002D14FF0020808E0DFF89880404502D10C
:1009A0004FF0030801E04FF0040808FA06F848EA9F
:1009B0000508CCF808804D68D9F80060ED024D4676
:1009C00001D5164300E096432E604D68DAF80060CA
:1009D000AD02554601D5164300E096432E604D68A2
:1009E000DBF80060AD035D4601D5164300E0964399
:1009F0002E604D68DEF80060ED03754601D51643A4
:100A000000E096432E60641C0D682A46E5407FF4A2
:100A100031AFBDE8F88F000008040140000011105C
:100A2000001002400000014000080140000C01409D
:100A300000100140001401400AB10161704709042F
:100A4000FBE7000001488068704700002C00002090
:100A50000248816802781144816070472C000020B0
:100A6000074810B5016841F010010160032000F053
:100A700075F80F2000F006F800F024F8002010BDF3
:100A80000020024070B50D4D04464FF47A7128786D
:100A9000B1FBF0F00A490968B1FBF0F001F05DF933
:100AA00048B9102C07D200222146501E00F036F81B
:100AB00000206C6070BD012070BD00002C00002083
:100AC000380000200C4808B5816941F001018161BE
:100AD000816901F001010091C16941F08051C1615A
:100AE000C06900F0805000900448416821F0E06146
:100AF00041F00071416008BD00100240000001405B
:100B0000002809DB00F01F0201219140400980000C
:100B100000F1E020C0F8001170470000F0B40E4B67
:100B20001B680C46C3F30223C3F10705042D00D94B
:100B30000425191D072901D2002300E0DB1E012630
:100B400006FA05F1491E214099409E40761E164046
:100B50003143F0BC03F0FCBF0CED00E0064900F0AF
:100B6000070208684FF6FF03184040EA0220034AD4
:100B700010430860704700000CED00E00000FA052B
:100B800010B50C0607D501F0070101EB810100EB60
:100B9000C100283005E001EB810100EBC10000F548
:100BA000B47099B232B1012202730181190C4181F2
:100BB000002010BD00220273C180F9E77047006871
:100BC00003F0ACBB01EB810200EBC202D0F8EC02F7
:100BD000D26B02F0DCBE01EB810200EBC202D0F866
:100BE000EC02D2F87C2102F035BF006803F09FBB15
:100BF00070B504460B0601F0070000EB800104EB22
:100C0000C1014FF001024FF0000503D581F8292002
:100C1000283103E081F8695101F5B471087094F846
:100C2000A802012808D084F8A822206803F086FBD7
:100C300084F8A852002070BD022070BD70B5044633
:100C400001F00F006268904201D9012070BD0B06CF
:100C500001F0070000EB800104EBC1014FF001023D
:100C60004FF0000503D581F82920283103E081F8F1
:100C7000695101F5B4718D70087094F8A8020128CB
:100C800008D084F8A822206803F0F5FB84F8A85265
:100C9000002070BD022070BD2DE9F05F04685FEA9E
:100CA000424C0B788D69B4F850C04FF000064BF6FB
:100CB0008F7948F2800A48F68F7B48F2C00E4FF4D5
:100CC00080672AD54FF0020808EBC308C44407EB3D
:100CD0004C07E45BC4F30904A54203D32D1B8D61CB
:100CE00001D00BE08E61066836F8235005EA09054D
:100CF00085F4005545EA0A0526F82350520609D521
:100D00000D78036833F8252002EA0B0242EA0E024E
:100D100023F8252084B30A8929E04FF0060808EB60
:100D2000C308C44407EB4C07E45BC4F30904A542C1
:100D300003D32D1B8D6101D00BE08E61066836F860
:100D4000235005EA090585F4005545EA0A0526F809
:100D50002350520609D40B78056835F8232002EA9F
:100D60000B0242EA0E0225F823202CB14A89496978
:100D70000068234603F05EFE2046BDE8F09F2DE9A3
:100D8000F05F054600680C465FEA426C16468B69C8
:100D90002278B0F850C048F68F774CF280094FF4B3
:100DA000004B4FF6FF7E4FF4806A4FF0000172D582
:100DB0004FF0020808EBC208E0440AEB480C30F898
:100DC0000C00C0F30900834211D91B1AA3610FD094
:100DD000730407D52E6836F822303B4043EA0903F6
:100DE00026F8223094F82420012A47D052E1A1614C
:100DF000607810B1012813D01AE02868B0F850309C
:100E0000184400EB0210B0F80424C2F30902A0F861
:100E10000424B0F8042442F40042A0F8042407E0BB
:100E20002868B0F85030184400EB0210A0F8041401
:100E30006278286812B1012A11D018E0B0F8501079
:100E40000844217800EB0110B0F80C14C1F309013B
:100E5000A0F80C14B0F80C1441F4004105E0B0F80F
:100E600050201044227800EB0210A0F80C142178D6
:100E70002846FFF7A7FE700472D40BE162690244B2
:100E80006261E2690244E2612369226A9A4203D301
:100E90001846111A04E03EE084F824100AB1104606
:100EA0002162617811B1012929D031E02968B1F8B6
:100EB00050201144227801EB0211B1F80424C2F34E
:100EC0000902A1F8042401F204413E2807D942098D
:100ED000C30600D1521E0B884BEA822207E048B1BC
:100EE0004208C30700D0521C0B880EEA822213432B
:100EF0000B800DE00A8842F400420A8008E029686D
:100F0000B1F850201144227801EB0211A1F8040439
:100F100083B22289BAE04FF0060808EBC208E04429
:100F20000AEB480C30F80C00C0F30900834211D3DF
:100F30001B1AA3610FD0730407D42E6836F8223031
:100F40003B4043EA090326F8223094F82420012A82
:100F500051D09FE0A161607818B1012814D01BE046
:100F60003FE02868B0F85030184400EB0210B0F8A9
:100F70000424C2F30902A0F80424B0F8042442F4C3
:100F80000042A0F8042407E02868B0F85030184464
:100F900000EB0210A0F804146278286812B1012A4C
:100FA00011D018E0B0F850100844217800EB01107F
:100FB000B0F80C14C1F30901A0F80C14B0F80C142B
:100FC00041F4004105E0B0F850201044227800EBD5
:100FD0000210A0F80C1421782846FFF7F3FD7004E6
:100FE00058D42278296831F82200384040EA0900B4
:100FF00021F822004EE0626902446261E269024423
:10100000E2612369226A9A4203D31846111A2162C7
:1010100004E00AB11046216284F82410627829683D
:1010200012B1012A28D02FE0B1F8502011442278C3
:1010300001EB0211B1F80C24C2F30902A1F80C244F
:1010400001F20C413E2807D94209C30600D1521EC5
:101050000B884BEA822207E048B14208C30700D060
:10106000521C0B880EEA822213430B800CE00A8884
:1010700042F400420A8007E0B1F85020114422787F
:1010800001EB0211A1F80C04628983B2616928683E
:1010900003F0EEFC2278296831F8220048F6BF738D
:1010A000184080F0300048F28003184321F82200F5
:1010B0000020BDE8F09F2DE9F04104460F0601F045
:1010C000070000EB800104EBC1014FF001064FF077
:1010D000000503D581F82960283103E081F86951C2
:1010E00001F5B471022B08700A61CB7000D10D714B
:1010F00094F8A802012809D084F8A862206802F0B8
:10110000BFFF284684F8A852BDE8F0810220FBE723
:1011100010B501F0070404EB840100EBC101C1E943
:101120005F230022C1F8842181F8692181F8684198
:10113000006801F5B47103F0F3F9002010BD70B53B
:1011400004460D4601F007006168884201D901207C
:1011500070BD29064FF000064FF0010207D500EBE5
:10116000800104EBC10181F82920283107E005EB5B
:10117000850104EBC10181F8696101F5B4718A70E0
:10118000087094F8A802012807D084F8A8222068E3
:1011900003F0ADF9680702D006E0022070BD04F547
:1011A0002C71206803F065F984F8A862002070BDF6
:1011B00010B501F0070404EB840100EBC101C1E9A3
:1011C0000F23012281F84C208B6400234B6481F8AB
:1011D000292001F8284F006803F0A2F9002010BD73
:1011E0001FB50446006803F021FC010403D5204626
:1011F00001F008FB1FBD41050DD5206830F8441FE4
:1012000021F480610180204600F018F90021204679
:1012100000F02FF91FBD410405D5206830F8441FA8
:1012200021F4804174E0810405D5206830F8441F22
:1012300021F400516CE0C10414D5206830F8401F3F
:1012400021F004010180206830F8401F21F00801DE
:101250000180204600F005F9206830F8441F21F491
:10126000805155E0010540D5D4F8002000206946A2
:1012700032F8203021F81030401CC0B20828F7D3D3
:1012800032F8400F40F001001080206830F8402F05
:1012900022F0010202802068B0F844205205FBD5FC
:1012A00030F8442F22F4806202800020236831F855
:1012B000102023F82020401CC0B20828F6D3206854
:1012C00030F8401F41F008010180206830F8441FC9
:1012D00021F400610180206830F8401F41F00401D2
:1012E0000180204600F0FAF81FBD810509D520686D
:1012F00030F8441F21F400710180204600F0B5F859
:101300001FBDC005FCD5206830F8441F21F4807152
:1013100001801FBD2DE9F04186B0040004D094F88F
:10132000A902002520B108E0012006B0BDE8F08147
:1013300084F8A852204600F05BF8032084F8A90244
:10134000206803F08FF804F11001142288466846E3
:10135000FEF7F8FE94E80F0002F0E7FF0227D0BB8B
:101360000021206803F07CFB002001260EE000BF76
:1013700000EB800104EBC10181F8296001F8280F1E
:10138000401CCD700D614D61C0B28D6161688142BC
:10139000EED8002012E000BF00EB800104EBC10199
:1013A00081F8695181F8680181F86B51C1F8785171
:1013B000C1F87C51401CC0B2C1F8805161688142C3
:1013C000EAD8142241466846FEF7BCFE94E80F00B6
:1013D00003F03FF810B184F8A972A5E784F824500F
:1013E00084F8A962206803F032F800209DE700002D
:1013F00008B500680F4988421AD10F48C16941F405
:101400000001C161C069002200F400000090114693
:101410001320FFF783FB1320FFF772FB0022114616
:101420001420FFF77BFBBDE808401420FFF768BBE2
:1014300008BD0000005C00400010024070B504468A
:1014400080680125022801D0FFF7F2F92946D4F877
:10145000EC0202F0ECFBD4F8EC02BDE8704002F0C4
:10146000A8BBD0F8EC0202F0CCBBD0F8EC0202F042
:10147000D2BB10B5044690F8A80201280BD0012079
:1014800084F8A80284F82410206803F0EBFA002006
:1014900084F8A80210BD022010BDD0F8EC2200F59F
:1014A0002C71104602F0CFBB10B5044690F8A8028C
:1014B000012810D0012084F8A802206803F0A1FAC6
:1014C00001212046FFF77AFB206802F0BEFF0020D2
:1014D00084F8A80210BD022010BD000010B504461B
:1014E000D0F8EC0202F0EEFBA069002804D003481B
:1014F000016841F00601016010BD000010ED00E040
:101500002DE9F84305460078354CC00754D0E06912
:101510000026C00008D4E06940F08050E061E06936
:10152000012600F0805000902E480168C90512D4B1
:101530000168804641F480710160FFF783FA074635
:1015400005E000BFFFF77EFAC01B642823D8D8F857
:101550000000C005F6D5206A10F4407021D0A9889B
:1015600001F4407181421CD0206A1F49012220F4FD
:1015700040700A6000220A602062C00711D0FFF7A5
:1015800061FA074641F2883808E000BFFFF75AFACF
:10159000C11B414502D90320BDE8F883206A8007BA
:1015A000F4D5206A696820F44070084320621EB1B7
:1015B000E06920F08050E0612878800705D56068F8
:1015C000A96820F44040084360602878C00605D52B
:1015D0006068E96820F48000084360600020DBE771
:1015E0000010024000700040400442422DE9F047E4
:1015F0000F46050061D0434E306800F00700B84246
:1016000009D2306820F0070038433060306800F0BD
:101610000700B84251D128683B4C810712D54007DA
:1016200003D5606840F4E06060602878000703D567
:10163000606840F4605060606068A96820F0F00065
:10164000084360602878C00728D06868012810D057
:101650002168022810D0890700292EDA616821F05C
:10166000030101436160FFF7EDF9804641F28839DB
:101670000DE021688903EFE78901EDE7FFF7E2F963
:10168000A0EB0801494502D90320BDE8F087606856
:10169000696800F00C00B0EB810FEFD1306800F00A
:1016A0000700B8420BD9306820F00700384330609B
:1016B000306800F00700B84201D00120E5E7287843
:1016C000400705D56068E96820F4E0600843606081
:1016D0002878000706D56068296920F4605040EA40
:1016E000C100606000F038F86168084AC1F3031176
:1016F000515CC8400649086006480068FFF7C2F917
:101700000020C2E7002002400010024022560008DC
:10171000380000203000002004480549006849686E
:10172000044AC1F30221515CC840704738000020D0
:101730000010024032560008044805490068496814
:10174000044AC1F3C221515CC840704738000020F0
:1017500000100240325600080E4A51680E4801F04F
:101760000C03042B11D0082B0FD10C48C1F3834379
:10177000C903C05C0AD55168084AC1F34041921EB2
:10178000515C054A5043B0FBF1F0704704494843AF
:10179000704700000010024000127A001256000844
:1017A00000093D002DE9F84F040070D02078C04DAD
:1017B000C00749D06868C0F38100012807D0686875
:1017C000C0F38100022809D16868C00306D52868E3
:1017D000800339D560680028E7D035E06068B0F54F
:1017E000803F0BD010B1B0F5A02F11D0286820F4A5
:1017F00080302860286820F4802002E0286840F4C7
:1018000080302860606890B1FFF71CF906460AE056
:10181000286840F480202860F0E700BFFFF712F945
:10182000801B642873D828688003F7D50CE0FFF785
:1018300009F9064605E000BFFFF704F9801B64289C
:10184000F0D828688003F7D420789A4E80074FF0AC
:1018500001094FF0000839D5686810F00C0F07D067
:101860006868C0F38100022809D16868C00306D403
:101870002868800714D52069012808D110E0206964
:10188000B0B1C6F80090FFF7DDF8074605E00AE1C1
:10189000FFF7D8F8C01B0228C4D828688007F7D5FE
:1018A0002868616920F0F80040EAC10028600DE076
:1018B000C6F80080FFF7C6F8074604E0FFF7C2F855
:1018C000C01B022823D828688007F7D42078000797
:1018D0002CD57948A169D9B1C0F80090FFF7B2F8CA
:1018E000074604E0FFF7AEF8C01B02280FD8686A6D
:1018F0008007F7D571484FF4FA510068B0FBF1F05A
:10190000009000BF0098411E0091FAD20EE080E0E6
:10191000C0F80080FFF796F8074604E0FFF792F85A
:10192000C01B022875D8686A8007F7D42078400762
:1019300060D5E8690027C00008D4E86940F080500D
:10194000E861E869012700F0805000905C48016878
:10195000C90513D40168834641F480710160FFF723
:1019600071F8824606E000BFFFF76CF8A0EB0A00B2
:1019700064284ED8DBF80000C005F5D5E0680128E2
:101980000AD008B1052813D0286A20F00100286287
:10199000286A20F0040002E0286A40F00100286272
:1019A000E06841F2883B98B1FFF74CF882460BE0C3
:1019B000286A40F004002862EEE700BFFFF742F813
:1019C000A0EB0A0159455AD8286A8007F6D50CE0E1
:1019D000FFF738F8824605E0FFF734F8A0EB0A017C
:1019E00059454CD8286A8007F6D41FB1E86920F021
:1019F0008050E861E06988B36968C1F38101022918
:101A000044D00228C6F8608004D0FFF71BF80446D3
:101A100038E034E0FFF716F8074604E0FFF712F865
:101A2000C01B02282BD828688001F7D4206AB0F5A3
:101A3000803F05D16868A16820F4003008436860E1
:101A4000D4E908010843696821F474110843686007
:101A5000C6F86090FEF7F6FF044606E025E000BFFA
:101A6000FEF7F0FF001B022809D828688001F7D58F
:101A70001BE000BFFEF7E6FF001B022802D903208F
:101A8000BDE8F88F28688001F4D40EE00128F7D073
:101A90006868226A00F48031914204D1616A00F4DE
:101AA0007010884201D00120EAE70020E8E700003A
:101AB00000100240000042428004424238000020F0
:101AC0000070004070B5040009D0606A002540B184
:101AD00025616561A56294F8510040B10CE00120D8
:101AE00070BD6068B0F5827FF4D0E561F2E784F8FC
:101AF0005050204600F040F8022084F85100206841
:101B0000016821F040010160A088218900F4827001
:101B100001F404410843A18901F400610843217CD8
:101B200001F002010843217D01F001010843218BEE
:101B300001F400710843217F01F03801084394F853
:101B4000201001F080010843218D01F40051084369
:101B500021680860A069042101EA104021684860FA
:101B60002068C16921F40061C1616565012084F8C4
:101B70005100002070BD000030B585B000240094F5
:101B800001940294039400681549884225D11548B0
:101B9000C16941F48041C161C16901F4804104918E
:101BA000816941F00801816180690F4D00F00800F2
:101BB00004904FF4204000900220019003200390F5
:101BC00069462846FEF748FE4FF48040CDE9000400
:101BD000694628460294FEF73FFE05B030BD00007E
:101BE0000038004000100240000C01402DE9F84F81
:101BF000044690F850000026984615468A4601286B
:101C00000CD0012784F85070FEF71CFF814694F831
:101C10005100B346012804D002269AE00220BDE814
:101C2000F88FBAF1000F6FD0002D6DD0032084F82B
:101C30005100C4F854B0C4F830A0A586E586C4F8B5
:101C400038B0A4F83CB0A4F83EB0C4F844B0C4F82E
:101C500040B0A068B0F5004F09D12068016821F0BC
:101C6000400101602068016841F480410160206802
:101C70000168490603D4016841F040010160E06851
:101C8000B0F5006F606803D058B3012D29D049E04A
:101C900008B1012D1FD1206B21680088C86006E0C3
:101CA00020688168890709D5216B0988C160206B8C
:101CB000801C2063E08E401EE0860CE0FEF7C2FE32
:101CC000A0EB0901414503D3B8F1FF3F03D006E083
:101CD000B8F1000F03D0E08E0028E1D125E0032603
:101CE00035E0206B21680078087306E02068816881
:101CF00089070AD5216B09780173206B401C20638A
:101D0000E08E401EE0860DE01FE0FEF79BFEA0EB9C
:101D10000901414503D3B8F1FF3F03D0DFE7B8F134
:101D2000000FDCD0E08E0028E0D14A464146204634
:101D300001F0D2F908B120206065A06818B92068C8
:101D4000C16880680090606D08B1012601E084F8E8
:101D5000517084F850B0304661E710B5401EB0F1C4
:101D6000807F01D3012010BD4FF0E02460610F217E
:101D7000601702F0EDFE0020A06107202061002026
:101D800010BD70477047000070B590F83C20012AE4
:101D900026D0012480F83C40022280F83D200368D0
:101DA0005A689D6822F070060A6832435A600D4BEB
:101DB00002689A4208D0B2F1804F05D00A4B9A428D
:101DC00002D00A4B9A4204D1496825F08003194396
:101DD000916080F83D40002180F83C10084670BDBD
:101DE000022070BD002C01400004004000080040AB
:101DF00090F83D10012901D001207047022180F8A0
:101E00003D100168CA6842F00102CA6000680B49CF
:101E1000884208D0B0F1804F05D00949884202D0ED
:101E20000849884204D1816801F00701062903D0DE
:101E3000016841F00101016000207047002C014061
:101E4000000400400008004000F032BB2DE9F041E2
:101E5000054690F83C0000260C46012810D00120D1
:101E600085F83C0072B1042A1CD0082A2CD00C2A18
:101E700050D00126002085F83C003046BDE8F081B6
:101E80000220FBE7D4E90012E368286801F068FA51
:101E90002868816921F00C01816128688169A26844
:101EA00011430FE0D4E90012E368286801F084FAD6
:101EB0002868816921F44061816128688169A2688C
:101EC00041EA02218161D5E72868D4E9002C277B0B
:101ED000036A016A21F480710162C16923F400730D
:101EE00021F0030141EA0C0121F0F00C39074FF415
:101EF00000774CEA116107EA02221A43C1610262CB
:101F00002868C16921F00C01C1612868C169A26813
:101F100011432BE02868D4E90021E768036AD0F870
:101F200020C02CF4805CC0F820C0D0F81CC023F482
:101F300000532CF4407C4CEA012121F4704C4FF604
:101F4000FF7101EA07314FF4005741EA0C0107EA3B
:101F500002321A43C16102622868C16921F44061FA
:101F6000C1612868C169A26841EA0221C16181E7B3
:101F700010B5040003D094F83D0010B107E0012033
:101F800010BD002084F83C00204600F01FF802201D
:101F900084F83D00211D206801F09EF9012084F89D
:101FA000460084F83E0084F83F0084F8400084F83E
:101FB000410084F8420084F8430084F8440084F827
:101FC000450084F83D00002010BD000000B585B03C
:101FD000002100910191029103910068114988420A
:101FE0001ED11148C16941F00401C161C16901F00C
:101FF00004010491816941F00801816180696946A9
:1020000000F008000490402000900848FEF724FCEF
:10201000002211461E20FEF781FD1E20FEF770FDF6
:1020200005B000BD0008004000100240000C014057
:1020300030B50446002551B104290DD0082910D02F
:1020400094F8410094F84520012811D10EE094F84D
:102050003E0094F84220F7E794F83F0094F84320BC
:10206000F2E794F8400094F84420EDE7012A01D00B
:10207000012030BD022059B1042912D0082919D0FD
:1020800084F8410084F845000C2938D0012534E05B
:1020900084F83E0084F842002068C26842F00202E0
:1020A00010E084F83F0084F843002068C26842F0E2
:1020B000040207E084F8400084F844002068C26805
:1020C00042F00802C2600122206801F03BF90E498B
:1020D0002068884208D0B0F1804F05D00B49884273
:1020E00002D00B49884204D1816801F0070106291A
:1020F00003D0016841F001010160284630BD20682D
:10210000C26842F01002DDE7002C014000040040EC
:102110000008004070B50446006801694FF00005F2
:10212000C943890715D4C168C943890711D4E91E79
:10213000016101202077206880698007204602D055
:10214000FFF782FE04E000F098F8204600F096F8D1
:10215000257720680169C943490717D4C168C94375
:10216000490713D46FF00401016102202077206831
:10217000806910F4407F204602D0FFF765FE04E03E
:1021800000F07BF8204600F079F825772068016997
:10219000C943090716D4C168C943090712D46FF0AF
:1021A00008010161042020772068C069800720466B
:1021B00002D0FFF749FE04E000F05FF8204600F08F
:1021C0005DF8257720680169C943C90617D4C1683D
:1021D000C943C90613D46FF01001016108202077AC
:1021E0002068C06910F4407F204602D0FFF72CFE23
:1021F00004E000F042F8204600F040F8257720681F
:102200000169C943C90708D1C168C943C90704D1D5
:10221000891E0161204600F032F820680169C94337
:10222000090609D4C168C943090605D46FF08001C5
:1022300001612046FFF7A5FD20680169C9434906F1
:1022400009D4C168C943490605D46FF04001016152
:10225000204600F02BF820680169C94389060BD499
:10226000C168C943890607D46FF020010161204687
:10227000BDE87040FFF786BD70BD7047704700F045
:10228000A9B90246002041B1042909D008290AD081
:102290000C2901D11068006C70471068406B7047C2
:1022A0001068806B70471068C06B7047704770B5DE
:1022B000040004D094F84100002510B106E001208C
:1022C00070BD84F84050204600F024F8242084F8A3
:1022D00041002068C16821F40051C160204601F02E
:1022E00087F82068016921F4904101612068416903
:1022F00021F02A0141612068C16841F40051C160A8
:102300006564202084F8410084F842006563002061
:1023100070BD000030B585B0002400940194029493
:10232000039400681449884224D11448816941F417
:1023300080418161816901F480410491816941F0AA
:102340000401816180690E4D00F0040004904FF497
:1023500000700090022001900320039069462846F7
:10236000FEF77AFA2815CDE900046946284602945A
:10237000FEF772FA05B030BD00380140001002408F
:10238000000801402DE9F843044690F841001F463B
:1023900016460D46202802D00220BDE8F8837DB104
:1023A00076B100206064212084F84100FEF74AFBEA
:1023B000A6848046E684A068B0F5805F02D003E082
:1023C0000120EAE7206910B12E4600250EE0002624
:1023D0000CE08021204601F067F8A0B9AEB116F8F4
:1023E000010B21684860E08C401EE084E08C43468D
:1023F0004FF0000200970028EBD14FF0400120463B
:1024000001F052F830B10320C7E735F8020BC0F3F2
:102410000800E6E7202084F841000020BDE7FEE741
:1024200070B5124A044640685060E06890602068C9
:10243000D061106A0D4630B1042806D0082806D0B5
:102440000C2806D008E0012004E0022002E004206D
:1024500000E0082082F824002046FFF7C9FC294646
:102460002046BDE87040FFF7E3BD0000A401002056
:102470000348044982698A4200DB816180697047B0
:10248000A40100200000E14310B5084C01221021F6
:102490002046FEF7D1FA0120FEF7CCF920460022B3
:1024A000BDE810401021FEF7C7BA00000008014047
:1024B00070B5444D04460068E96988423AD1207FEE
:1024C00095F82410884235D129462878096A0026D3
:1024D00088B301282ED12046FFF7D3FE6988AA6869
:1024E00001FB02002861E968401A6861FDF746FFB8
:1024F0000022354BFDF7BCFE0022344BFDF746FEB3
:10250000721EFDF724FF0022314BFDF73FFEFDF761
:1025100055FFA8612E70286A88B304284AD008287D
:102520002068016A4BD021F400510162286A2068BA
:10253000016A016270BDFFE72046FFF7A2FEE86076
:10254000286AB8B104281BD008282068016A1CD06A
:1025500021F400510162286AD0B104281DD0082856
:102560002068016A1ED041F4005101626E80012092
:102570002870DFE72068016A21F00A01EAE714E029
:102580002068016A21F0A001E4E721F40071E1E78D
:102590002068016A41F00201E7E72068016A41F022
:1025A0002001E2E741F40071DFE72068016A21F0D1
:1025B0000A01BAE72068016A21F0A001B5E721F419
:1025C0000071B2E7A401002080842E4100407540D4
:1025D0000000594001680448C269914202D1418813
:1025E000491C418070470000A4010020F0B5002381
:1025F0000A24302537261F4611E000BFB4EB107FB8
:1026000002D905EB107C01E006EB107C01F813C049
:1026100001EB430C00015B1C8CF80170DBB29342B0
:10262000ECD3F0BD2DE9F04385B000252748009597
:10263000019502950395816941F0200181618169CD
:1026400001F020010491816941F0040181618169F7
:1026500001F004010491816941F008018161806900
:10266000DFF86C8000F00800049000221021404642
:10267000FEF7E2F9DFF85C90012202214846FEF7FE
:10268000DBF94FF44077002239464846FEF7D4F98B
:102690001020012402268DE8710069464046FEF7AD
:1026A000DBF8CDE90064CDE9025669464846FEF7FD
:1026B000D3F80320CDE90240CDE9007469464846CD
:1026C000FEF7CAF805B0BDE8F08300000010024034
:1026D00000080140000C01400F4810B50D49016091
:1026E0004FF48271416000218160C1604FF400723B
:1026F0000161C0E90512C1610162416281620A2182
:10270000C162FFF7DFF9002803D0BDE81040FEF7F3
:102710008FB810BD00380040CC01002010B586B045
:1027200000241848059404940094019402941449D8
:10273000039401604721C0E901144FF6FF71C0E91D
:1027400003148461FFF714FC08B1FEF771F80494D8
:1027500004A90C480594FFF717FB08B1FEF768F8C9
:102760000120CDE900400294002269460548039407
:10277000FFF76CFB002801D0FEF75AF806B010BD39
:1027800000080040240200200C4810B50A490160EE
:102790004FF4E1314160002181600C22C160C0E949
:1027A00004128161C161FFF782FD002803D0BDE8FA
:1027B0001040FEF73DB810BD003801406C0200200B
:1027C00010B500220B490C4801F0BAF808B1FEF729
:1027D0002FF80A49084801F09BFA08B1FEF728F8DB
:1027E000054801F0EBFA002803D0BDE81040FEF7E1
:1027F0001FB810BD3C000020B40200208C00002057
:10280000FEE7FEE72DE9F84F044640F68F7B48F6D9
:102810000F794FF480684FF0000AC0E1B0F844101F
:1028200011F00F0539D030F8256031047ED530F82D
:10283000251001EA0B0141F0800120F8251005EB7D
:10284000850004EBC00797F8740107F5B4770028FA
:102850006DD0F87802286BD03978226832F82100E0
:1028600048F68F73184048F2C003184322F821003D
:102870003978206830F82120B0F8503052047DD5E6
:10288000022202EBC1015A1808EB4201415A8905A4
:10289000890D009173D03A89DFE0C9062DD40188F3
:1028A00001EA090141F400410180206804F1280592
:1028B000B0F850302978022202EBC1015A1808EB17
:1028C0004201405AC0F309006064E16B0844E063D0
:1028D00000212046FEF776F994F8240000289CD0C9
:1028E000A869002899D194F82400216840F080005C
:1028F000A1F84C0084F824A051E1018804F5B475D6
:102900000A0521D5B0F850202B78062101EBC30130
:102910000A4408EB4201405A04F52C71C0F3090344
:10292000EB61EA88206802F085F802E0B0E070E030
:1029300080E02068018801EA0B0141F080010180FC
:102940002046FEF7AAFD2AE10904D5D5018801EA4F
:102950000B0141F0800101802068B0F850202B78F5
:10296000062101EBC3010A4408EB4201405A8305EA
:102970009B0DEB6110D0696971B101E061E05FE02E
:10298000EA88206802F056F8E969686908446861D5
:1029900000212046FEF71FF9216808880205ABD404
:1029A000C0F301300328A7D0B1F850000844B0F8B4
:1029B0000C14C1F30901A0F80C142A6900F20C40B0
:1029C0003E2A09D95109D20600D1491E02884FF486
:1029D000004343EA812109E0B2B15108D20700D097
:1029E000491C02884FF6FF7303EA81210A430280E3
:1029F000216808884BF68F72104080F4405048F2EE
:102A0000800210430880CAE0018841F4004101803F
:102A1000EEE72068B0F850203B78062101EBC301B7
:102A20000A4408EB4201415A8905890D009118D0EA
:102A3000FA8812E0324639462046FEF72DF900901A
:102A40000FE0062202EBC1015A1808EB4201415A7D
:102A50008905890D009104D07A897969009B01F07C
:102A6000E9FFF86900990844F86179690098084419
:102A70007861B86918B139690098814204D9397808
:102A80002046FEF7A8F803E03946206801F048FD2B
:102A900030062FD505EB850004EBC001206830F827
:102AA000252002EA090242F4004220F8252091F88C
:102AB0002B00283101281ED0F0056CD42068B0F816
:102AC00050300D78022202EBC5021A4408EB420294
:102AD000805A8A69C0F30900824255D9121A8A6164
:102AE00054D04A6902444A61CA691044C8612068E6
:102AF00001F016FD53E0C1F818A0087B524608B358
:102B0000700620D5487810B1012812D03AE020682C
:102B1000B0F8502010440A7800EB0210B0F80424FA
:102B2000C2F30902A0F80424B0F8042442F40042DD
:102B300006E02068B0F8503018440B7800EB031022
:102B4000A0F804241EE04B78206813B1012B11D0AB
:102B500018E0B0F8502010440A7800EB0210B0F8EA
:102B60000C24C2F30902A0F80C24B0F80C2442F49F
:102B7000004205E0B0F8503018440B7800EB031029
:102B8000A0F80C24097802E0C1F818A0E9B22046A8
:102B9000FEF718F803E032462046FEF7F0F820680A
:102BA000B0F8441009043FF539AE0020BDE8F88FB5
:102BB00003211420FDF72FBE10B54021152001F090
:102BC00091FF0120FDF736FE142000F091F98007F7
:102BD00003D10321142000F02DFBBDE81040152087
:102BE00000F086B970B50646082188B00024084672
:102BF000FDF711FE00210D2001F074FF80210E2051
:102C0000FDF709FE93208DF8040020208DF80500C3
:102C100006A801AB0090022219460C2000F017F81C
:102C200005000DD1002101A8425C7254425C491C90
:102C30005440C9B20429F7D3405CA04200D0FE251D
:102C400080210E2000F0F6FA08B0284670BD2DE96C
:102C5000FF5F0027FE25DDF838A016468B4681462B
:102C6000B8460C2805D0B9F10E0F05D11227102057
:102C700001E077273020804647F08001022001F0F4
:102C800031FF80210420FDF7C6FD0021012001F065
:102C900029FF80210A2000F0CDFA002405E01BF86E
:102CA0000410092001F01EFF641CB442F7D349460A
:102CB000012001F017FFB9F10C0F03D180210D2085
:102CC00000F0B8FA41F27076042000F011F90446E1
:102CD000761E04D0E00702D114EA080FF4D0802158
:102CE0000D20FDF798FD36B1062000F001F910F037
:102CF0001B0F0CD0FE2580210C2000F09BFA002138
:102D0000012001F0EFFE04B02846BDE8F09F002549
:102D10003C40E00700D0FF25B9F10C0FEBD10A20B1
:102D200000F0E6F804460C2000F0E2F810F007008E
:102D30004FEAC40101D008390144CAF8001024B197
:102D4000122C04D91224002603E00124FBE70026FC
:102D500005E0092000F0CCF803998855761CA642BE
:102D6000F7D3C8E730B50C460546082187B00846BA
:102D7000FDF751FD07210D2001F0B4FE03211420C1
:102D800000F058FA06A801AB00908DF8045001221B
:102D900019460C20FFF75BFF10B90699102902D0E5
:102DA000FE2007B030BD9DF8041021709DF805107D
:102DB0006170F6E770B501221C4D54022146284689
:102DC000FDF73AFE0A2002F03CFB0022214628468D
:102DD000FDF732FE642002F034FB01222146284632
:102DE000FDF72AFE0A2002F02CFB0F21012001F042
:102DF00079FE642002F025FB3D21112001F072FED6
:102E00001E212D2001F06EFE00212C2001F06AFE13
:102E10008D212A2001F066FE3E212B2001F062FE6A
:102E20004021152001F05EFE002070BD000C014025
:102E30007047000070B5164D4FF480740022214693
:102E40002846FDF7F9FDFF230422AA211148FEF7C9
:102E5000CDFE012221462846FDF7EEFD3220FDF78A
:102E6000E9FCFFF7A7FF0A20FDF7E4FCFFF7A2FF4C
:102E70000A20FDF7DFFCFFF79BFE0A20FDF7DAFCD6
:102E8000FFF79AFEBDE8704003A001F051BE0000BC
:102E9000000C0140CC010020524649442D4D4652C1
:102EA0004335323220B3F5CABCBBAFCDEAB3C90D4E
:102EB0000A46696E64436172642053746172746976
:102EC0006E67202E2E2E0D0A0000000007490A68AA
:102ED000D2439207FBD4054A121D10600868C04314
:102EE000C007FBD11068C0B270470000083800402E
:102EF00070B5124E04464FF48075002229463046C4
:102F0000FDF79AFD0A20FDF795FC7E2000EA4400BB
:102F100040F08000FFF7DAFF0A20FDF78BFC00206D
:102F2000FFF7D4FF04460A20FDF784FC012229465E
:102F30003046FDF781FD204670BD0000000C0140C9
:102F4000F8B53F495220FFF70DFF00285ED13C48FD
:102F50000178042908D002290AD044290CD0082974
:102F600012D044290AD012E0407880B935A00FE091
:102F7000407860B937A00BE0417819B14078032858
:102F800047D004E036A003E0407800283FD038A0C6
:102F900001F0CEFD2A480830FFF724FE002835D185
:102FA00035A001F0C5FD264C0834E0780090A378E8
:102FB0006278217833A001F0BBFD2078012500F074
:102FC0000F01000900EB800001EB4000C1B21C4E74
:102FD0002F4C4FF4FA7721291DD02F291BD02DA07B
:102FE00001F0A6FD00253220FDF724FC002202217D
:102FF0002046FDF721FD3220FDF71CFC01220221B5
:103000002046FDF719FD6D1C032DECDBF8BD27A054
:10301000BEE728A0BCE72AA001F08AFD0022022119
:103020002046FDF709FD3846FDF704FC0122022188
:103030002046FDF701FD02F0CBFA7560F8BD0000F7
:10304000000000200D0A4D464F6E652D5335300DA2
:103050000A0000004D464F6E652D533730000000CA
:103060004D462D556C7472614C69676874000000A0
:10307000556E6B6E6F776E004361726420496420F9
:1030800069733A0025642564256425640D0A0000EF
:10309000000C0140CEDED0A7BFA83A256420D1E9BC
:1030A000D6A4CAA7B0DC210D0A0000004D462D5061
:1030B000726F00004D462044657369726500000020
:1030C000B9DCC0EDD4B13A256420D1E9D6A4CDA8AD
:1030D000B9FD210D0A00000038B50B4600920446E8
:1030E0000022802100F008F8002804D0606D40F034
:1030F00020006065032038BD2DE9F8431E46914647
:1031000088460446089DFDF79DFC401B351AFDF7D7
:1031100099FC074625480068C0F3CB30684338E087
:10312000701C37D0FDF78EFCC01BA84203D215B12E
:10313000009860B32CE02068416821F0E001416014
:103140006068B0F5827F0BD1A068B0F5004F02D067
:10315000B0F5806F04D12068016821F04001016062
:10316000A06AB0F5005F09D12068016821F4005120
:1031700001602068016841F400510160012084F879
:103180005100002084F850000320BDE8F88300259A
:10319000401E00902068816838EA010004D00021B8
:1031A0004945BDD10020F0E70121F9E738000020B2
:1031B000704700000E4910B58870082208310D488C
:1031C00000F047FB0F20FDF735FB082208490948AE
:1031D00000F03FFB0F20FDF72DFB054908220831C9
:1031E000044800F036FBBDE810400F20FDF722BB7D
:1031F0001C000020B402002010B50C4C08222070E6
:10320000A17021460A4800F024FB0F20FDF712FBB5
:1032100000202070A07008222146054800F019FB0C
:10322000BDE810400F20FDF705BB00001C0000208A
:10323000B402002070B50C460546FFF759FE204346
:1032400040EA04012846BDE8704001F04BBCFDF7A0
:10325000FFBB30B593B028216846FCF78CFF1421E2
:103260000AA8FCF788FF002401200F941094119401
:10327000010412948DE8130004904FF4E010CDE99E
:103280000810022507956846FEF78CFA08B172B659
:10329000FEE70F20CDE90A054FF48060CDE90C4030
:1032A00002210AA80E94FEF7A1F908B172B6FEE752
:1032B00010200F9012940FA8FEF722F9002801D0D9
:1032C00072B6FEE713B030BD704700000148FEF74C
:1032D00021BF000024020020F0B50268164B174CF5
:1032E000174D4FF08047984205D0B84203D0A04216
:1032F00001D0A84203D122F070064A6832439842B6
:1033000005D0B84203D0A04201D0A84203D122F494
:103310004074CA6822434C6922F080022243026052
:103320008A68C2620A688262984201D109690163AF
:1033300001214161F0BD0000002C0140000400406B
:103340000008004010B501F01F030121046A9940F4
:103350008C430462016A9A401143016210BD00006F
:1033600070B5056A046A24F00104046284690F4E92
:10337000B04208D0B0F1804F05D00D4EB04202D01F
:103380000C4EB04203D124F00304144301E044F096
:1033900001041A0724F0F00444EA126225F00A033B
:1033A00001F00A0119438261016270BD002C0140E5
:1033B000000400400008004030B5046A056A25F0AA
:1033C00010050562856925F4407545EA022222F45C
:1033D00070454FF6FF7202EA033224F0A0032A433D
:1033E000A02404EA011119438261016230BD00008A
:1033F00070B5044600680169E26821F44051114348
:1034000001612169A0680843616908432168CA68AD
:1034100041F20C639A430243CA6020684169A26981
:1034200021F44071114341611E492068884202D154
:10343000FEF782F901E0FEF76FF900EBC00101EB46
:103440000012606864218000B2FBF0F3B3FBF1F37B
:103450006FF018067343B2FBF0F5B2FBF0F605EB24
:103460008305322303EB0515B5FBF1F5B6FBF1F649
:1034700005F0F00505EB0615B2FBF0F6B2FBF0F037
:10348000B0FBF1F06FF01802504306EB800003EB45
:103490000010B0FBF1F0216800F00F0028448860B4
:1034A00070BD0000003801402DE9F04198461746F4
:1034B0000E460446069D27E0681C25D02DB1FDF779
:1034C000C1FAA0EB0800A8421ED920680C3050E8D1
:1034D000001F21F4D07140E80012002AF5D12068C5
:1034E000143050E8001F21F0010140E80012002ACA
:1034F000F5D1202084F8410084F84200002084F8AF
:1035000040000320BDE8F0812068006836EA000032
:1035100004D00020B842CFD00020F3E70120F9E723
:1035200010B5D0F8B42252689047002010BD134661
:1035300010B50A46002100F01FFB002010BD134605
:1035400010B50A46002100F0C6FB002010BD10B5E2
:103550000446802100F0A4FB2046BDE81040002175
:1035600000F09EBB10B505210023C0F894121A4646
:10357000194600F001FB002010BD10B50223C26106
:10358000C0F89432026213460A46002100F0A3FB01
:10359000002010BD10B504210023C0F894121A4673
:1035A000194600F098FB002010BD000010B50A4637
:1035B000024903A000F0DAF8004810BD78050020A9
:1035C00048494420436F6E666967000012200880F6
:1035D000004870475C00002010B50A46024903A06D
:1035E00000F0C4F8004810BD780500204849442088
:1035F000496E74657266616365000000042008808E
:10360000004870475800002010B50A46024903A040
:1036100000F0ACF8004810BD7805002053544D6907
:1036200063726F656C656374726F6E6963730000BB
:1036300010B50A46024903A000F098F8004810BDF2
:103640007805002053544D33322048756D616E204B
:10365000696E7465726661636500000010B51A20BA
:103660000880401809D008220549FEF7BFFF044929
:10367000042210312046FEF7B9FF0148801E10BD1C
:1036800072000020F8B504460020ADF8000048881C
:103690000D46010A082948D2DFE801F0470409175E
:1036A00047473C45D4F8B012207C0A6819E0207CDA
:1036B00002260028D4F8B40205D0C16A68468847BB
:1036C000014646703EE0816AF8E7C0B206282CD277
:1036D000DFE800F0030A1014181CD4F8B0024268A6
:1036E00005E0694690471CE0D4F8B0028268E2B178
:1036F000207CF6E7D4F8B002C268F8E7D4F8B0024C
:103700000269F4E7D4F8B0024269F0E7D4F8B002F5
:103710008269ECE7207C40B9D4F8B402416B68467A
:10372000884701460EE0207C20B129462046FFF75D
:103730000EFFF8BDD4F8B402016B68468847014615
:1037400007204870BDF8000048B1EA8852B18242B3
:1037500000D90246ADF800202046FFF70EFFE888AA
:103760000028E6D12046FFF715FFF8BD70B500230D
:1037700000281ED00446002502E06D1CEDB2641C3A
:103780002678002EF9D1022404EB45041480127827
:10379000CA545B1C0322CA5400245B1C06E0CA54B2
:1037A0005B1CDAB28C54521CD3B2401C0278002A43
:1037B000F5D170BD01004FF0000004D0012901D007
:1037C000022901D00220704701207047D0F8B802CA
:1037D000002101730846704770B50446812100F04E
:1037E000CDF80025E562D4F8B80218B100F043FC2A
:1037F000C4F8B852002070BD0A210180004870470B
:10380000540100202921018000487047C400002095
:103810002921018000487047F00000202921018003
:10382000004870471C01002010B5044616230322EF
:10383000812100F095F90120E062102000F01CFCCD
:10384000C4F8B80218B100210173084610BD022067
:1038500010BD10B5134690F89C42D0F8B822032C46
:1038600007D1147B2CB9012414730A46812100F07E
:1038700032FA002010BD000038B503460022D0F80F
:10388000B802ADF8002014460A7812F0600216D093
:10389000202A4AD14A78022A0ED0032A06D00A2AC0
:1038A00006D00B2A41D18978016042E001222BE049
:1038B0004988090A41603CE00122011D25E04A785F
:1038C00032B1062A0BD00A2A23D00B2A2DD128E0A8
:1038D00093F89C02032828D10222694615E0488803
:1038E0002222B2EB102F05D1CA883F2A00D93F22ED
:1038F000124809E02122B2EB102F16D10F48CA88D6
:103900001838092A00D9092201461846FFF735FE62
:103910000FE093F89C22032A07D1012200F108014D
:10392000F3E793F89C22032A05D01846FFF70FFE11
:103930000224204638BD89788160FAE760010020C2
:1039400010B580B1D0F8B43213B10023C0F8B4324E
:1039500009B1C0F8B012012180F89C12027000F089
:10396000BBF8002010BD022010BD10B5D0F8C00279
:10397000FDF764F9BDE81040FFF71CBF10B5D0F8A3
:10398000C002FDF735F9BDE81040FFF713BF2DE980
:10399000F0411746044651B1D4F8B40242691AB155
:1039A00094F89C02032851D00220BDE8F081D4F89D
:1039B0009432002504F11400022B03D0042B3AD0DA
:1039C000C3B33CE0D0E903639E4207D9F11AC1605A
:1039D0008AB239462046FFF7B2FD12E08068B0FB9C
:1039E000F3F103FB110199B9984211D3D4F898125D
:1039F00088420DD2002211462046FFF7A0FDC4F8F0
:103A0000985200231A461946204600F0B5F816E0F1
:103A1000D4F8B402C16829B194F89C02032801D1FA
:103A2000204688478021204600F03AF92046FFF7DB
:103A300099FD04E0FFE78021204600F031F994F879
:103A4000A002012804D184F8A05201E0204690474A
:103A50000020AAE770B51546044649B1D4F8B4026F
:103A600082691AB194F89C02032830D0022070BDFC
:103A7000D4F8941204F5AA70032902D005291ED0A7
:103A800027E0D0E903218A420BD9531AC3600846C4
:103A9000834200D303469AB229462046FFF747FDEA
:103AA00017E0D4F8B402016929B194F89C02032804
:103AB00001D1204688472046FFF76CFD09E0002031
:103AC0000146C4F89402204600F0EAF801E02046DE
:103AD0009047002070BD000010B517490446C1F89A
:103AE000EC02C0F8C01215480860082048600220A7
:103AF000886000208861C86108620846FDF70AFCFA
:103B000008B1FCF795FE0022D4F8C0021823114634
:103B100004F53074FDF734F8582300228021206822
:103B2000FDF72EF84FF48073002281212068FDF705
:103B300027F8002010BD00008C070020005C00402A
:103B40000A0601F07F01D0F8C00201EB810100EB11
:103B5000C10002D590F82A00704790F86A017047BA
:103B600010B51C461346D0F8C0022246FDF7A3FA52
:103B7000BDE81040FFF71EBE10B5D0F8C002FDF73B
:103B8000C7FABDE81040FFF715BE10B5044690F81F
:103B90009C0204280CD1D4F8C002FDF710F80A20CA
:103BA000FCF748FED4F8C002BDE81040FDF71DB890
:103BB00010BD70B50022044640231146FFF7D0FF28
:103BC00040260125C4F86461334600228021204646
:103BD000C4F85851FFF7C4FF6662A56184F89C528F
:103BE0000020C4F894026060C4F8A402D4F8B802BB
:103BF00028B1D4F8B4020021426820469047002042
:103C000070BD90F89C12042903D190F89D1280F8A1
:103C10009C120020704710B590F89C12032904D123
:103C2000D0F8B412C96901B18847002010BD0174F1
:103C30000020704710B5D0F8C002FDF71AFCBDE8AF
:103C40001040FFF7B7BD70B5044600F52A70054671
:103C500000F04AF80120C4F89402B4F8AE02C4F8A7
:103C6000980294F8A80210F01F010AD001290DD083
:103C7000022910D000F08001204600F011F8002049
:103C800070BD2946204600F09EF8F8E729462046F8
:103C900000F0CAF9F3E72946204600F01DF9EEE7E7
:103CA00010B5D0F8C002FDF74AFABDE81040FFF7A2
:103CB00081BD10B5D0F8C002FDF7F6FBBDE810409D
:103CC000FFF778BD90F89C1280F89D12042180F8CF
:103CD0009C120020704710B5D0F8C002FDF768FABA
:103CE000BDE81040FFF766BD0A7802704A7842705E
:103CF0008A78CB7802EB032242800A794B7902EB77
:103D0000032282808A79C97902EB0121C180704740
:103D10000246002011B1C2F8B41270470220704769
:103D200010B5D0F8B42202241AB11268904700B935
:103D30000024204610BD000070B50E461E4D897847
:103D400004462970012931D894F89C0202280BD02E
:103D500003280FD031462046FFF7F9FB297820468B
:103D6000BDE87040FFF7DCBBD9B10320616084F887
:103D70009C0209E071B16068884212D0C1B220464D
:103D8000FFF7CEFB297861602046FFF7C9FF0228C4
:103D90000CD006E0022084F89C0220466160FFF708
:103DA000BFFB2046BDE87040FFF7F4BB314620461C
:103DB000BDE87040FFF7CBBB8A00002010B5FFF7CD
:103DC00078FF002010BD2DE9F0410A78002612F09E
:103DD000600208D0202A01D0402A70D1D0F8B42245
:103DE000926890476DE04B78002201250A2B66D23D
:103DF000DFE803F0405D6557650805652C29FFF78E
:103E000041FC5EE004468888D8B9C888C8B94888AB
:103E1000802816D200F07F0794F89C02032810D067
:103E200084F89E7239462046FFF704FF2046FFF7CC
:103E3000B1FB1FB1022084F89C0242E084F89C523E
:103E40003FE020463BE0FFF777FF3AE0CB88012BCD
:103E500035D190F89C32012B04D0022B02D0032BD9
:103E60002DD104E08260012200F1080116E0012258
:103E7000011D13E090F89C22012A03D0022A01D0F0
:103E8000032A1CD1CA88022A19D1C560D0F8A4120D
:103E900009B10321C160022200F10C01FFF76DFBA3
:103EA0000FE0498801290CD1C0F8A45211E090F824
:103EB0009C32012B08D0022B06D0032B04D0FFF735
:103EC00046FB3046BDE8F08149880129F9D1C0F8A8
:103ED000A422FFF75FFBF4E72DE9F0410A46044610
:103EE00010780027097910F060030AD0202B01D048
:103EF000402B50D1D4F8B40211468368204698472D
:103F00008FE0C0F34110012806D05078D0B30128CB
:103F10002AD003283FD107E0D4F8B40211468368C1
:103F20002046BDE8F041184794F89C02022802D0D0
:103F3000032872D10AE071B380296ED02046FFF7C2
:103F4000AFFE80212046FFF7ABFE6AE0508838B90B
:103F500031B1802904D0D08810B92046FFF7A0FEE7
:103F60002046FFF717FB5CE094F89C020228E2D0A1
:103F7000032852D1508898BB4806F1D02046FFF75D
:103F8000F4FCEDE7FFE794F89C020026022803D03A
:103F9000032842D112E040E009B180293DD1080652
:103FA00001F07F0000EB800004EB800101D51431AB
:103FB00001E001F5AA7102220E602AE0080601F074
:103FC0000F0000EB800004EB80000AD5806920B36D
:103FD00001F07F0000EB800004EB800514350BE05E
:103FE0001FE0D0F85801C0B101F07F0000EB800065
:103FF00004EB800505F5AA7541B1802906D020465D
:10400000FFF79EFD10B10120286000E02E60022223
:1040100029462046FFF7B1FA03E011462046FFF794
:1040200096FA3846BDE8F08170B5054608780C462A
:1040300010F0600003D0202801D0402816D195F858
:104040009C02012803D0022801D003280ED1207938
:1040500001280BD8D5F8B402826828469047E18839
:10406000014306D12846FFF795FA02E02846FFF7FC
:104070006EFA002070BD7047004870477807002036
:104080002DE9F0470C78002630F8243048F68F12DE
:104090001340CA78002A78D0012A7CD0022A02D0A4
:1040A000032A75D0012648F28002134320F82430F9
:1040B0000D7830F8253048F68F7423402B43134396
:1040C00020F825300D7B48F2C00948F6BF734CF24A
:1040D000800A4BF68F77EDB3CD7891F800C0022DB2
:1040E00030F82C507DD048F68F6805EA0805154356
:1040F00020F82C50B0F8505091F800C0054405EB62
:104100000C15B1F808C02CF0010CA5F800C4B0F8EB
:10411000505091F800C0054405EB0C15B1F80AC0E9
:104120002CF0010CA5F808C44D78002D7ED00D7838
:1041300030F825C05FEA4C4C07D530F825C00CEAB2
:10414000040C4CEA0A0C20F825C091F800C030F8A5
:104150002C5000E022E06D0606D530F82C502540AA
:1041600045EA090520F82C50CC780D78012C30F860
:10417000254004EA03047CD084F02003134320F894
:104180002530C1E001E006E002E043F400738AE775
:1041900043F4C06387E743F4806384E74D784DB30D
:1041A000B0F850500F78054405EB0715CF8827F07D
:1041B0000107A5F800740F7830F827506D0606D572
:1041C00030F82750254045EA090520F82750CC78DB
:1041D000012C07D00C7830F82410194081F0200110
:1041E00004E064E00C7830F824101940114320F802
:1041F000241090E0B0F850300D78034403EB051321
:10420000CD8825F00105A3F80854B0F850300D789A
:10421000034403EB0513B3F80C54C5F30905A3F8E5
:104220000C540D6903F20C433E2D00E045E00BD920
:104230004FEA551CED0601D1ACF1010C1D884FF47D
:10424000004848EA8C2C0BE035B34FEA550CED07DB
:1042500001D00CF1010C1D884FF6FF7808EA8C2C78
:1042600045EA0C051D800D7830F825305B0408D533
:1042700000E046E030F82530234043EA0A0320F806
:104280002530097861B130F821303B4083F4005388
:10429000134320F821303EE01D8845F40045E1E756
:1042A0000188394081F440511143018033E02540B9
:1042B00048F2801845EA08051AE791F800C030F87E
:1042C0002C506D0406D530F82C50254045EA0A05DF
:1042D00020F82C5091F800C030F82C506D0606D50F
:1042E00030F82C50254045EA090520F82C500D786F
:1042F00030F825403C4084F44054144320F82540D5
:1043000070E7144320F825400B7830F8231039402B
:10431000114320F823103046BDE8F08730F8401FE5
:1043200041F010010180002070470020704730F8F4
:10433000401F21F010010180002070472DE9F0435B
:1043400091F80C804F780A7848F6BF7C4BF68F794D
:1043500048F2800348F2C0054CF2800648F68F749C
:10436000B8F1000F28D0002F30F822704FEA4747ED
:1043700048D0002F05DA30F822702740374320F864
:1043800022700A7830F822707F0605D530F8227046
:1043900027402F4320F822700D7830F82520224046
:1043A000324320F825200C7830F8242002EA0C0251
:1043B0001A4320F824201AE07FB130F822607606F4
:1043C00005D530F8226026402E4320F822600A7876
:1043D00030F8221001EA0C010EE030F822506D0492
:1043E00005D530F822502540354320F822500A7870
:1043F00030F8221001EA0901194320F822100020A8
:10440000BDE8F083002F05DA30F8227027403743EB
:1044100020F822700A7830F82260760605D530F848
:10442000226026402E4320F822600E7830F82620A5
:1044300022402A4320F826200C7830F8242002EA73
:1044400009021A4320F82420C1E700207047002009
:104450007047012120F8401F0021018081800182E6
:104460000846704730F8401F21F43F41018000208A
:1044700070470020704730B50A7BB2BB4A7848F6D7
:104480008F7548F28004C2B10B7830F823205206B1
:1044900007D530F823202A4048F2C0052A4320F8E7
:1044A0002320CA78012A20D00A7830F8221048F652
:1044B000BF73194081F0200114E00A7830F82230EF
:1044C0005B0407D530F822302B404CF280052B439B
:1044D00020F822300A7830F822104BF68F731940FA
:1044E00081F44051214320F82210002030BD10B546
:1044F0004A780978002A48F2800330F8212005D054
:1045000048F6BF74224082F0100204E04BF68F742C
:10451000224082F480521A4320F82120002010BD4E
:104520002DE9F0470D464B78097B04464FF0000912
:1045300048F68F7248F2800A4FF400474FF6FF7832
:10454000012B09D000296FD0E87802286DD001280E
:104550006CD00120BDE8F087AE692869864200D999
:10456000064691B1E97802291ED0286A801B28628C
:10457000287834F820104906B4F85010214401EB93
:10458000001073D5A0F80C6416E1B3B2EA88204697
:10459000696900F06DFAB4F850002978204400EB06
:1045A0000110A0F804640DE1296A814277D92978C5
:1045B00034F82100104048F28012104324F8210002
:1045C000286A801B2862287834F820104906697808
:1045D00071D511B101292AD030E0B4F8501021442E
:1045E00001EB0010B0F80C14C1F30901A0F80C1491
:1045F00000F20C403E2E07D97109F20600D1491E87
:10460000028847EA812107E04EB17108F20700D025
:10461000491C028808EA81210A4302800EE00188D1
:1046200041F40041018009E0F1E020E195E1B4F8B6
:104630005020111901EB0010A0F80C646A89B3B284
:104640002046696900F014FA686930446861296994
:10465000286A884202D9801B286202E00646C5F813
:104660002090687818B101282BD032E02FE0B4F800
:1046700050002978204400EB0110B0F80414C1F375
:104680000901A0F8041400F204403E2E08D9710973
:10469000F20600D1491E028847EA812108E0A1E024
:1046A00056B17108F20700D0491C028808EA81213E
:1046B0000A4302800DE00EE0018841F400410180D0
:1046C00007E0B4F850002978204400EB0110A0F86E
:1046D00004642A8971E011B1012927D02DE0B4F8D2
:1046E0005010214401EB0010B0F80414C1F309018B
:1046F000A0F8041400F204403E2E07D97109F20616
:1047000000D1491E028847EA812107E04EB17108B5
:10471000F20700D0491C028808EA81210A4302807E
:104720000BE0018841F40041018006E0B4F850102C
:10473000214401EB0010A0F804642A89B3B220469A
:10474000696900F095F96869304468612969286AE7
:10475000884202D9801B286202E00646C5F82090F4
:10476000687810B1012836D026E0B4F850002978D6
:10477000204400EB0110B0F80C14C1F30901A0F8BB
:104780000C1400F20C403E2E07D97109F20600D13C
:10479000491E028847EA812107E04EB17108F207FD
:1047A00000D0491C028808EA81210A43028003E004
:1047B000018841F4004101806A89B3B220466969E9
:1047C00000F056F9297834F8210048F6BF721040FD
:1047D00080F030000FE1B4F850100819297800EB90
:1047E0000110CFE62A7834F8220048F68F6318408B
:1047F00040EA0A0024F82200B4F850002A78204445
:1048000000EB02108BB2A0F804342A89D6E7A9691C
:104810002869814202D9091AA96102E00846C5F84F
:104820001890B4F850102A78214401EB0211B1F825
:104830000C24C2F30902A1F80C2401F20C413E2819
:104840007DD94209C00600D1521E088847EA82225B
:104850000AE0088840F4004007E04208C00700D0A2
:10486000521C088808EA822210430880BBE033BB50
:10487000B4F850002978204400EB0110B0F804147B
:10488000C1F30901A0F80414296900F204403E298B
:1048900007D94B09C90600D15B1E018847EA83236B
:1048A00007E041B14B08C90700D05B1C018808EA4A
:1048B0008323194302E0018841F4004101806878B4
:1048C00010B1012828D030E0B4F8500029782044F5
:1048D00000EB0110B0F80C14C1F30901A0F80C149E
:1048E000296900F20C403E2907D94B09C90600D1BD
:1048F0005B1E018847EA832307E041B14B08C907E3
:1049000000D05B1C018808EA8323194302E0018878
:1049100041F40041018008E0B4F8501008192978EA
:1049200000EB0110298AA0F80C14E869C0B32978BB
:1049300034F82100430401D5430605D400E046E0E5
:1049400044F2400318424ED134F82100104048F29E
:10495000C002104324F8210045E0A969286981427A
:1049600002D9091AA96102E00846C5F8189013BBDC
:10497000B4F850102A78214401EB0211B1F8042454
:10498000C2F30902A1F8042401F204413E2808D927
:104990004209C30600D1521E0B8847EA822208E072
:1049A00021E078B14208C30700D0521C0B8808EA06
:1049B000822213430B80697800293FF42EAF01292E
:1049C00009D010E00A8842F400420A80F3E7002888
:1049D0007FF443AF3DE7B4F8502011192A7801EB7A
:1049E0000211A1F80C04297834F821004BF68F72DB
:1049F000104080F4405040EA0A0024F821000020D2
:104A0000A8E50021A0F844104FF43F41A0F8401061
:104A1000002070470148FCF7E3BB00008C07002032
:104A20000148FCF7DDBB00008C070020B0F8440013
:104A30007047000010B500EB42005C0800F5806094
:104A400009D000BF30F8042B01F8012B120A01F83D
:104A5000012B641EF6D1DA0701D00088087010BD62
:104A60000020704711B98021A0F84C100020704739
:104A700010B55B1C00EB42005B0800F5806009D0BC
:104A800011F8012B11F8014B42EA042220F8042B03
:104A90005B1EF5D110BDFEE70D4810B590F89C02E5
:104AA000042813D10A48FFF770F80A20FBF7C2FE6A
:104AB0000848FCF784F80A20FBF7BCFE0548FCF721
:104AC00094F8BDE8104004A000F032B810BD00001A
:104AD000B40200208C07002057616B655550210AF5
:104AE000000000002DE9F041104E0F4604464FF43F
:104AF0008075002229463046FBF79EFF0A20FBF70F
:104B000099FE7E2000EA4400FEF7E0F90A20FBF758
:104B100091FE3846FEF7DAF90A20FBF78BFE2946AC
:104B20003046BDE8F0410122FBF786BF000C014092
:104B30000FB4054B10B503A9044A029800F0EAF837
:104B400010BC5DF814FB000055540008A0010020C3
:104B50000907090E002804DB00F1E02080F80014AA
:104B6000704700F00F0000F1E02080F8141D70473E
:104B700002E008C8121F08C1002AFAD17047704726
:104B8000002001E001C1121F002AFBD17047000084
:104B90002DE9FF5F82B00021DDE90430020DDDF870
:104BA00040B0034318D044F61050A2F2FF32424303
:104BB0001514119801281FD0A5EB0B00401C5FEACB
:104BC000000A4FF000064E4FDFF83891B0465046CD
:104BD00015D5CAF1000413E0119801244AA3012855
:104BE00001D16FEA0B010298119AC0E90031C0E9C6
:104BF000024206B0BDE8F09FCBF10000DFE70446BB
:104C00000021404A491842EB0450CDE9001012E05F
:104C1000E00707D032463B4640464946FBF7B6FA26
:104C20008046894632463B4610461946FBF7AEFAA7
:104C300006460F466410002CEAD1DDE90401DDE9E7
:104C40000023BAF1000F06DAFBF7A0FA42464B4602
:104C5000FBF79CFA05E0FBF70BFB42464B46FBF7E4
:104C600007FB04460E460022284BFBF75DFD03D8E8
:104C70004FF0FF30014607E00022254B2046314629
:104C8000FBF793FCFBF738FD102409E0002C0ADB4E
:104C90000A220023FBF7C4FB039B30321A55641E23
:104CA00050EA0102F2D1641C039AC4F111031444C6
:104CB000119A012A03D0012208430DD10AE00843CA
:104CC00004D000204FF0110B119072E7A3EB0B05FD
:104CD0006D1E0DE05B4504DD4FF0000205F101059E
:104CE00004E003DA4FF00002A5F10105002AECD040
:104CF00002981199C0E90231C0E9004579E7000046
:104D0000000014400000F03F300000000000F043BD
:104D10000000E03F2DE9FF4F95B09B4689460646CF
:104D200000250FE2252877D100242746F84A0121E3
:104D3000059400E0044316F8013F203B01FA03F01C
:104D40001042F7D130782A2811D06FF02F03307835
:104D5000A0F13002092A16D8059A44F0020402EBA9
:104D6000820203EB42021044761C0590EFE759F8EB
:104D7000042B0592002A03DA504244F400540590B3
:104D800044F00204761C30782E2816D116F8010F54
:104D900044F004042A280DD06FF02F023078A0F1DF
:104DA0003003092B09D807EB870302EB4303C7182D
:104DB000761CF3E759F8047B761C30786C280FD00A
:104DC00006DC4C2817D068280DD06A2814D104E0DE
:104DD000742810D07A280FD10DE044F400140AE0B2
:104DE00044F4801401E044F440147278824202D109
:104DF00004F58014761C761C307866280BD013DC02
:104E0000582877D009DC002875D04528F6D04628E8
:104E1000F4D047281AD19DE118E0632835D06428E2
:104E200079D0652812D195E1702873D008DC672805
:104E3000F1D069286FD06E280DD06F2806D1B5E06B
:104E400073282CD0752875D0782874D05A461799B5
:104E500090476D1C75E1C4F30250022809D0032865
:104E60000DD0D9F8001004280DD00D6009F1040907
:104E700067E1D9F80010EA17C1E90052F6E7D9F85E
:104E800000100D80F2E70D70F0E719F8041B8DF8A3
:104E9000001000208DF80100EA46012003E059F8D7
:104EA00004AB4FF0FF3061074FF0000102D40DE07A
:104EB00008F101018846B9420FDA8045F8DB1AF89B
:104EC00008100029F4D108E008F101018846814268
:104ED000FADB1AF808100029F6D105985B46A0EB1A
:104EE000080721463846179A00F094FA284400EB48
:104EF000080507E04DE029E10DE01AF8010B5A46DC
:104F000017999047B8F10108F7D25B462146384619
:104F1000179A13E142E00A220092C4F302524FF0C2
:104F2000000A022A08D059F804CB032A4FEAEC7190
:104F30000AD00DE029E02AE009F1070121F007027B
:104F4000F2E802C1914609E00FFA8CFC4FEAEC71DD
:104F5000042A03D14FFA8CFC4FEAEC71002907DADE
:104F60000A460021DCF1000C61EB02012D2202E077
:104F7000220504D52B228DF80420012203E0E2074C
:104F800001D02022F7E7904659E00A2102E01022E2
:104F90000DE010214FF0000A00910BE010224FF0BD
:104FA000000A44F004040827009203E008224FF0AE
:104FB000000A0092C4F30252022A05D059F804CB29
:104FC0000021032A08D009E009F1070121F00702B6
:104FD000F2E802C1914605E01FFA8CFC042A01D1D7
:104FE0000CF0FF0C4FF00008220728D5702806D0DF
:104FF000009B83F0100353EA0A0305D00EE0402221
:105000008DF80420012208E05CEA010206D030227B
:105010008DF804208DF8050002229046009B83F055
:10502000080353EA0A030AD15CEA010201D16207CC
:1050300005D530228DF804204FF001087F1E582836
:1050400004D034A003900EA802900DE036A0F9E73A
:1050500053466046009AFBF7E3F984460398825C66
:105060000298401E029002705CEA0100F0D10298A2
:1050700006A9081A00F1200A600702D524F480343A
:1050800000E00127574502DDA7EB0A0000E0002001
:1050900000EB0A01009005984144401A0590E00396
:1050A00006D45B462146179A059800F0B3F90544EB
:1050B000002706E001A85A46C05D179990476D1C6D
:1050C0007F1C4745F6DBE0030CD55B462146179A6B
:1050D000059800F09FF9054404E030205A461799DE
:1050E00090476D1C0099481E00900029F5DC08E0EF
:1050F000029802995A460078491C029117999047E4
:105100006D1CBAF10001AAF1010AF1DC65E10000B1
:10511000092801003031323334353637383961628D
:105120006364656600000000303132333435363751
:1051300038394142434445460000000000F058F928
:105140000544761C307800287FF4ECAD19B0284671
:10515000BDE8F08F620700D4062709F1070222F0AC
:10516000070CFCE80223E14603F000485FEA080C64
:1051700002D00FF2702C0DE05FEA045C02D50FF252
:10518000682C07E05FEAC47C02D00FF2602C01E0DB
:10519000AFF2700C4FF0FF3823F00043CDF850C051
:1051A00065280CD006DC452809D046281DD04728A4
:1051B0003DD13DE0662818D067287ED138E0002137
:1051C000112F01DB112000E0781CCDE9000106A9B8
:1051D0000EA8FFF7DDFCDDE90F010E9A0391002117
:1051E000009207F1010A04914DE04FF00040009752
:1051F000CDE9011006A90EA8FFF7CAFCDDE90F02F0
:1052000003920E9B11990022DDF80CA000930492EA
:1052100011B9791C00EB010AB7EB0A0004D4C0F104
:10522000FF3007F1010A0490AAEB0700019044E067
:10523000012F00DA01270021112F01DD112000E0EC
:105240003846CDE9000106A90EA8FFF7A1FCDDE96B
:105250000F010E9A0391002104910092BA46210792
:105260000CD40399514500DA8A46BAF1010F05DDE5
:10527000009AAAF10101515C302908D0B84202DA43
:1052800010F1040F06DA0121CDE9011015E0AAF1B1
:105290000101E9E7002805DC049901440491AAEB27
:1052A000000102E0411C514500DD8A460499401A84
:1052B000401C01904FF000400290200704D4019858
:1052C000504501DBCDF8048000208DF84F00029896
:1052D0000DF14F07B0F1004F25D02B200E90029812
:1052E0004FF0020800280CDA404202902D200E9068
:1052F00007E00A210298FBF77DF83031029007F8A9
:10530000011DB8F10001A8F10108F2DC02980028A3
:10531000EFD1791E0E980870307800F0200040F030
:10532000450007F8020D12A8C01B00F107081498E9
:10533000007800B1012000EB0A01019801EBE07157
:1053400005984144401A401E0590E00306D45B4690
:105350002146179A059800F05DF8054414980078E6
:1053600018B15A46179990476D1CE00324D55B4647
:105370002146179A059800F04DF805441CE0049862
:10538000002807DBDDE90301884203DD0098405C6B
:10539000179901E0179930205A469047049805F173
:1053A0000105401C04900198401E019004D12E205C
:1053B0005A46179990476D1CBAF10001AAF1010AEB
:1053C000DDDC05E017F8010B5A46179990476D1C74
:1053D000B8F10001A8F10108F4DC5B462146179AF8
:1053E0000598ABE62D0000002B0000002000000017
:1053F0002DE9F041044600251E461746880404D4D2
:1054000005E039462020B0476D1C641EF9D52846BA
:10541000BDE8F0812DE9F041044600251E46904686
:10542000C80301D5302700E02027880404D505E013
:1054300041463846B0476D1C641EF9D52846BDE884
:10544000F081002103E000BF00BF00BF491C814282
:10545000F9D3704713B54FF0FF3301226946024874
:10546000FCF790FF00981CBD6C0200200F21082063
:10547000FDF7C2BEFBF7F4FAFDF7EBFEFDF7D2F83D
:10548000FDF72AF9FDF79CF9FDF77EF9FDF746F9DE
:10549000FDF7D0FC00212E48FCF7C2FFFCF7F4FF1B
:1054A0002C4E2D4F2D4C4FF4FA7900254FF001086A
:1054B0004846FBF7BFF9FCF7E7FFFCF7D9FFB0421E
:1054C0001FDC386878B9206850B9A068012807D176
:1054D0006420FBF7AFF92C20FDF76CFEC4F80080C8
:1054E000FDF72EFDA5606560FFF7D6FAFCF7C0FF5B
:1054F000FAF751FF02460B4619A06168FFF718FB47
:105500000CE0FCF7B5FFB04208DD6068401C60604D
:10551000052808D00A2801DD0A2060601EA0616805
:10552000FFF706FBC4E7FCF7A3FFFAF734FF0246D8
:105530000B461CA06168FFF7FBFA3D602560A06880
:105540000028EBD1FFF792FFC4F80880E6E70000DF
:1055500024020020000096420400002010000020D9
:105560007369676E333D25642068756D616E7320C5
:1055700064657465637465642C2077616974696E11
:1055800067206C6F636B2C64697374616E63653A3A
:10559000252E3166636D0A007369676E333D25649D
:1055A000000000007369676E333D2564206C6F63F3
:1055B0006B6564212064697374616E636520746F28
:1055C0006F206661722120252E31660A00000000DE
:1055D00010B52C20FDF7EEFD4FF44870FBF72AF9CB
:1055E0001F20FDF7E7FD1F20FDF7E4FD2020FDF75C
:1055F000E1FD2720FDF7DEFDBDE8104001A0FFF72B
:1056000097BA0000756E6C6F636B6564210A0000C9
:10561000010202030405060708090A0B0C0D0E0F10
:105620001010000000000000000001020304060743
:105630000809000000000102030400005C56000895
:1056400000000020A4010000BE0700083857000831
:10565000A4010020DC0C0000804B0008011ED204D5
:10566000320182101324F413CD351B08FD041309F5
:10567000361B0831041A5D041AAD101AD904170438
:105680000309041201320216401F045B4F1D020180
:10569000020341031A1A031B29383C12371B0879ED
:1056A00008811ACD1001101A11201A05041A1D04C0
:1056B0001AF920140902291301011CE03209B0195A
:1056C00066120115092111011401223F1607050177
:1056D0000310170A0705810316320AB92CAD01031E
:1056E00001022C2925A207091F2C2951692C691AAE
:1056F000314B0A06F819EF11100E05010906A10138
:10570000050719E029E715281A2501750195088173
:105710000295017508810395057501050819012990
:10572000059112180803910395067508261A65302D
:08573000111429658152C0002B
:04000005080000ED02
:00000001FF
